{
  "contractName": "SimpleStorage",
  "abi": [
    {
      "constant": true,
      "inputs": [
        {
          "name": "",
          "type": "address"
        },
        {
          "name": "",
          "type": "uint256"
        }
      ],
      "name": "ProofList",
      "outputs": [
        {
          "name": "countdocs",
          "type": "uint256"
        },
        {
          "name": "ipfsHash",
          "type": "string"
        },
        {
          "name": "name",
          "type": "string"
        },
        {
          "name": "time",
          "type": "uint256"
        },
        {
          "name": "owner",
          "type": "address"
        }
      ],
      "payable": false,
      "stateMutability": "view",
      "type": "function"
    },
    {
      "constant": true,
      "inputs": [
        {
          "name": "",
          "type": "bytes32"
        }
      ],
      "name": "Hashes",
      "outputs": [
        {
          "name": "",
          "type": "uint256"
        }
      ],
      "payable": false,
      "stateMutability": "view",
      "type": "function"
    },
    {
      "constant": false,
      "inputs": [],
      "name": "renounceOwnership",
      "outputs": [],
      "payable": false,
      "stateMutability": "nonpayable",
      "type": "function"
    },
    {
      "constant": true,
      "inputs": [
        {
          "name": "",
          "type": "bytes32"
        },
        {
          "name": "",
          "type": "uint256"
        }
      ],
      "name": "TagTable",
      "outputs": [
        {
          "name": "",
          "type": "string"
        }
      ],
      "payable": false,
      "stateMutability": "view",
      "type": "function"
    },
    {
      "constant": true,
      "inputs": [],
      "name": "owner",
      "outputs": [
        {
          "name": "",
          "type": "address"
        }
      ],
      "payable": false,
      "stateMutability": "view",
      "type": "function"
    },
    {
      "constant": true,
      "inputs": [
        {
          "name": "",
          "type": "uint256"
        }
      ],
      "name": "Proofs",
      "outputs": [
        {
          "name": "countdocs",
          "type": "uint256"
        },
        {
          "name": "ipfsHash",
          "type": "string"
        },
        {
          "name": "name",
          "type": "string"
        },
        {
          "name": "time",
          "type": "uint256"
        },
        {
          "name": "owner",
          "type": "address"
        }
      ],
      "payable": false,
      "stateMutability": "view",
      "type": "function"
    },
    {
      "constant": true,
      "inputs": [
        {
          "name": "",
          "type": "bytes32"
        }
      ],
      "name": "UserList",
      "outputs": [
        {
          "name": "",
          "type": "address"
        }
      ],
      "payable": false,
      "stateMutability": "view",
      "type": "function"
    },
    {
      "constant": false,
      "inputs": [
        {
          "name": "_newOwner",
          "type": "address"
        }
      ],
      "name": "transferOwnership",
      "outputs": [],
      "payable": false,
      "stateMutability": "nonpayable",
      "type": "function"
    },
    {
      "anonymous": false,
      "inputs": [
        {
          "indexed": false,
          "name": "ownerHash",
          "type": "address"
        },
        {
          "indexed": false,
          "name": "ipfsHash",
          "type": "string"
        }
      ],
      "name": "ProofAssociated",
      "type": "event"
    },
    {
      "anonymous": false,
      "inputs": [
        {
          "indexed": false,
          "name": "p",
          "type": "string"
        }
      ],
      "name": "ProofHash",
      "type": "event"
    },
    {
      "anonymous": false,
      "inputs": [
        {
          "indexed": false,
          "name": "destroyed",
          "type": "bool"
        }
      ],
      "name": "debug",
      "type": "event"
    },
    {
      "anonymous": false,
      "inputs": [
        {
          "indexed": false,
          "name": "destroyed",
          "type": "address"
        }
      ],
      "name": "debug2",
      "type": "event"
    },
    {
      "anonymous": false,
      "inputs": [
        {
          "indexed": true,
          "name": "previousOwner",
          "type": "address"
        }
      ],
      "name": "OwnershipRenounced",
      "type": "event"
    },
    {
      "anonymous": false,
      "inputs": [
        {
          "indexed": true,
          "name": "previousOwner",
          "type": "address"
        },
        {
          "indexed": true,
          "name": "newOwner",
          "type": "address"
        }
      ],
      "name": "OwnershipTransferred",
      "type": "event"
    },
    {
      "constant": false,
      "inputs": [],
      "name": "destroyContract",
      "outputs": [],
      "payable": false,
      "stateMutability": "nonpayable",
      "type": "function"
    },
    {
      "constant": false,
      "inputs": [
        {
          "name": "_ipfsHash",
          "type": "string"
        },
        {
          "name": "_name",
          "type": "string"
        },
        {
          "name": "_time",
          "type": "uint256"
        }
      ],
      "name": "createProof",
      "outputs": [
        {
          "name": "",
          "type": "uint256"
        }
      ],
      "payable": false,
      "stateMutability": "nonpayable",
      "type": "function"
    },
    {
      "constant": true,
      "inputs": [
        {
          "name": "index",
          "type": "uint256"
        }
      ],
      "name": "getProof",
      "outputs": [
        {
          "name": "",
          "type": "uint256"
        },
        {
          "name": "",
          "type": "string"
        },
        {
          "name": "",
          "type": "string"
        },
        {
          "name": "",
          "type": "uint256"
        },
        {
          "name": "",
          "type": "address"
        }
      ],
      "payable": false,
      "stateMutability": "view",
      "type": "function"
    },
    {
      "constant": true,
      "inputs": [],
      "name": "getProofsCount",
      "outputs": [
        {
          "name": "",
          "type": "uint256"
        }
      ],
      "payable": false,
      "stateMutability": "view",
      "type": "function"
    },
    {
      "constant": true,
      "inputs": [],
      "name": "getTotalProofs",
      "outputs": [
        {
          "name": "",
          "type": "uint256"
        }
      ],
      "payable": false,
      "stateMutability": "view",
      "type": "function"
    },
    {
      "constant": true,
      "inputs": [
        {
          "name": "finduser",
          "type": "string"
        }
      ],
      "name": "getUser",
      "outputs": [
        {
          "name": "",
          "type": "address"
        }
      ],
      "payable": false,
      "stateMutability": "view",
      "type": "function"
    },
    {
      "constant": true,
      "inputs": [
        {
          "name": "ipfshash",
          "type": "string"
        }
      ],
      "name": "getIndex",
      "outputs": [
        {
          "name": "",
          "type": "uint256"
        }
      ],
      "payable": false,
      "stateMutability": "view",
      "type": "function"
    },
    {
      "constant": true,
      "inputs": [
        {
          "name": "id",
          "type": "uint256"
        }
      ],
      "name": "getTimeStamp",
      "outputs": [
        {
          "name": "",
          "type": "uint256"
        }
      ],
      "payable": false,
      "stateMutability": "view",
      "type": "function"
    },
    {
      "constant": false,
      "inputs": [
        {
          "name": "tag",
          "type": "bytes32"
        },
        {
          "name": "ipfshash",
          "type": "string"
        }
      ],
      "name": "associateTags",
      "outputs": [
        {
          "name": "",
          "type": "bool"
        }
      ],
      "payable": false,
      "stateMutability": "nonpayable",
      "type": "function"
    },
    {
      "constant": true,
      "inputs": [
        {
          "name": "tag",
          "type": "bytes32"
        }
      ],
      "name": "retrieveTags",
      "outputs": [
        {
          "name": "",
          "type": "uint256"
        }
      ],
      "payable": false,
      "stateMutability": "view",
      "type": "function"
    },
    {
      "constant": true,
      "inputs": [
        {
          "name": "tag",
          "type": "bytes32"
        },
        {
          "name": "i",
          "type": "uint256"
        }
      ],
      "name": "retrieveHashFromTag",
      "outputs": [
        {
          "name": "",
          "type": "string"
        }
      ],
      "payable": false,
      "stateMutability": "view",
      "type": "function"
    }
  ],
  "bytecode": "0x6080604052336000806101000a81548173ffffffffffffffffffffffffffffffffffffffff021916908373ffffffffffffffffffffffffffffffffffffffff160217905550612101806100536000396000f300608060405260043610610107576000357c0100000000000000000000000000000000000000000000000000000000900463ffffffff168063013e79721461010c578063092a5cce1461019b57806311149ada146101b257806320b0f85b1461030557806331feb6711461034a5780633b7c5148146103f35780635143e1f514610566578063624a6b0d146105ab5780636747f391146105d6578063715018a614610617578063899d65461461062e5780638da5cb5b146106e25780639b1bc0c914610739578063a58edacd14610764578063a6ea19ad14610818578063af65c2d9146108e5578063b83500d014610a38578063ea1bbe3514610aa9578063f2fde38b14610b26575b600080fd5b34801561011857600080fd5b506101816004803603810190808035600019169060200190929190803590602001908201803590602001908080601f0160208091040260200160405190810160405280939291908181526020018383808284378201915050505050509192919290505050610b69565b604051808215151515815260200191505060405180910390f35b3480156101a757600080fd5b506101b0610c0f565b005b3480156101be57600080fd5b506101dd60048036038101908080359060200190929190505050610ca4565b6040518086815260200180602001806020018581526020018473ffffffffffffffffffffffffffffffffffffffff1673ffffffffffffffffffffffffffffffffffffffff168152602001838103835287818151815260200191508051906020019080838360005b8381101561025f578082015181840152602081019050610244565b50505050905090810190601f16801561028c5780820380516001836020036101000a031916815260200191505b50838103825286818151815260200191508051906020019080838360005b838110156102c55780820151818401526020810190506102aa565b50505050905090810190601f1680156102f25780820380516001836020036101000a031916815260200191505b5097505050505050505060405180910390f35b34801561031157600080fd5b506103346004803603810190808035600019169060200190929190505050610feb565b6040518082815260200191505060405180910390f35b34801561035657600080fd5b506103b1600480360381019080803590602001908201803590602001908080601f0160208091040260200160405190810160405280939291908181526020018383808284378201915050505050509192919290505050611018565b604051808273ffffffffffffffffffffffffffffffffffffffff1673ffffffffffffffffffffffffffffffffffffffff16815260200191505060405180910390f35b3480156103ff57600080fd5b5061043e600480360381019080803573ffffffffffffffffffffffffffffffffffffffff16906020019092919080359060200190929190505050611143565b6040518086815260200180602001806020018581526020018473ffffffffffffffffffffffffffffffffffffffff1673ffffffffffffffffffffffffffffffffffffffff168152602001838103835287818151815260200191508051906020019080838360005b838110156104c05780820151818401526020810190506104a5565b50505050905090810190601f1680156104ed5780820380516001836020036101000a031916815260200191505b50838103825286818151815260200191508051906020019080838360005b8381101561052657808201518184015260208101905061050b565b50505050905090810190601f1680156105535780820380516001836020036101000a031916815260200191505b5097505050505050505060405180910390f35b34801561057257600080fd5b5061059560048036038101908080356000191690602001909291905050506112e5565b6040518082815260200191505060405180910390f35b3480156105b757600080fd5b506105c06112fd565b6040518082815260200191505060405180910390f35b3480156105e257600080fd5b5061060160048036038101908080359060200190929190505050611347565b6040518082815260200191505060405180910390f35b34801561062357600080fd5b5061062c611367565b005b34801561063a57600080fd5b50610667600480360381019080803560001916906020019092919080359060200190929190505050611469565b6040518080602001828103825283818151815260200191508051906020019080838360005b838110156106a757808201518184015260208101905061068c565b50505050905090810190601f1680156106d45780820380516001836020036101000a031916815260200191505b509250505060405180910390f35b3480156106ee57600080fd5b506106f7611531565b604051808273ffffffffffffffffffffffffffffffffffffffff1673ffffffffffffffffffffffffffffffffffffffff16815260200191505060405180910390f35b34801561074557600080fd5b5061074e611556565b6040518082815260200191505060405180910390f35b34801561077057600080fd5b5061079d600480360381019080803560001916906020019092919080359060200190929190505050611560565b6040518080602001828103825283818151815260200191508051906020019080838360005b838110156107dd5780820151818401526020810190506107c2565b50505050905090810190601f16801561080a5780820380516001836020036101000a031916815260200191505b509250505060405180910390f35b34801561082457600080fd5b506108cf600480360381019080803590602001908201803590602001908080601f0160208091040260200160405190810160405280939291908181526020018383808284378201915050505050509192919290803590602001908201803590602001908080601f016020809104026020016040519081016040528093929190818152602001838380828437820191505050505050919291929080359060200190929190505050611635565b6040518082815260200191505060405180910390f35b3480156108f157600080fd5b5061091060048036038101908080359060200190929190505050611b45565b6040518086815260200180602001806020018581526020018473ffffffffffffffffffffffffffffffffffffffff1673ffffffffffffffffffffffffffffffffffffffff168152602001838103835287818151815260200191508051906020019080838360005b83811015610992578082015181840152602081019050610977565b50505050905090810190601f1680156109bf5780820380516001836020036101000a031916815260200191505b50838103825286818151815260200191508051906020019080838360005b838110156109f85780820151818401526020810190506109dd565b50505050905090810190601f168015610a255780820380516001836020036101000a031916815260200191505b5097505050505050505060405180910390f35b348015610a4457600080fd5b50610a676004803603810190808035600019169060200190929190505050611ccb565b604051808273ffffffffffffffffffffffffffffffffffffffff1673ffffffffffffffffffffffffffffffffffffffff16815260200191505060405180910390f35b348015610ab557600080fd5b50610b10600480360381019080803590602001908201803590602001908080601f0160208091040260200160405190810160405280939291908181526020018383808284378201915050505050509192919290505050611cfe565b6040518082815260200191505060405180910390f35b348015610b3257600080fd5b50610b67600480360381019080803573ffffffffffffffffffffffffffffffffffffffff169060200190929190505050611e09565b005b60003373ffffffffffffffffffffffffffffffffffffffff16610b8b83611018565b73ffffffffffffffffffffffffffffffffffffffff16141515610bad57600080fd5b600860008460001916600019168152602001908152602001600020829080600181540180825580915050906001820390600052602060002001600090919290919091509080519060200190610c03929190611f6a565b50506001905092915050565b3373ffffffffffffffffffffffffffffffffffffffff166000809054906101000a900473ffffffffffffffffffffffffffffffffffffffff1673ffffffffffffffffffffffffffffffffffffffff16141515610c6a57600080fd5b6000809054906101000a900473ffffffffffffffffffffffffffffffffffffffff1673ffffffffffffffffffffffffffffffffffffffff16ff5b6000606080600080600660003373ffffffffffffffffffffffffffffffffffffffff1673ffffffffffffffffffffffffffffffffffffffff16815260200190815260200160002086815481101515610cf857fe5b906000526020600020906005020160000154600660003373ffffffffffffffffffffffffffffffffffffffff1673ffffffffffffffffffffffffffffffffffffffff16815260200190815260200160002087815481101515610d5657fe5b9060005260206000209060050201600101600660003373ffffffffffffffffffffffffffffffffffffffff1673ffffffffffffffffffffffffffffffffffffffff16815260200190815260200160002088815481101515610db357fe5b9060005260206000209060050201600201600660003373ffffffffffffffffffffffffffffffffffffffff1673ffffffffffffffffffffffffffffffffffffffff16815260200190815260200160002089815481101515610e1057fe5b906000526020600020906005020160030154600660003373ffffffffffffffffffffffffffffffffffffffff1673ffffffffffffffffffffffffffffffffffffffff1681526020019081526020016000208a815481101515610e6e57fe5b906000526020600020906005020160040160009054906101000a900473ffffffffffffffffffffffffffffffffffffffff16838054600181600116156101000203166002900480601f016020809104026020016040519081016040528092919081815260200182805460018160011615610100020316600290048015610f355780601f10610f0a57610100808354040283529160200191610f35565b820191906000526020600020905b815481529060010190602001808311610f1857829003601f168201915b50505050509350828054600181600116156101000203166002900480601f016020809104026020016040519081016040528092919081815260200182805460018160011615610100020316600290048015610fd15780601f10610fa657610100808354040283529160200191610fd1565b820191906000526020600020905b815481529060010190602001808311610fb457829003601f168201915b505050505092509450945094509450945091939590929450565b60008060086000846000191660001916815260200190815260200160002080549050905080915050919050565b600060076000836040516020018080602001828103825283818151815260200191508051906020019080838360005b83811015611062578082015181840152602081019050611047565b50505050905090810190601f16801561108f5780820380516001836020036101000a031916815260200191505b50925050506040516020818303038152906040526040518082805190602001908083835b6020831015156110d857805182526020820191506020810190506020830392506110b3565b6001836020036101000a03801982511681845116808217855250505050505090500191505060405180910390206000191660001916815260200190815260200160002060009054906101000a900473ffffffffffffffffffffffffffffffffffffffff169050919050565b60066020528160005260406000208181548110151561115e57fe5b906000526020600020906005020160009150915050806000015490806001018054600181600116156101000203166002900480601f0160208091040260200160405190810160405280929190818152602001828054600181600116156101000203166002900480156112115780601f106111e657610100808354040283529160200191611211565b820191906000526020600020905b8154815290600101906020018083116111f457829003601f168201915b505050505090806002018054600181600116156101000203166002900480601f0160208091040260200160405190810160405280929190818152602001828054600181600116156101000203166002900480156112af5780601f10611284576101008083540402835291602001916112af565b820191906000526020600020905b81548152906001019060200180831161129257829003601f168201915b5050505050908060030154908060040160009054906101000a900473ffffffffffffffffffffffffffffffffffffffff16905085565b60046020528060005260406000206000915090505481565b6000600660003373ffffffffffffffffffffffffffffffffffffffff1673ffffffffffffffffffffffffffffffffffffffff16815260200190815260200160002080549050905090565b600060036000838152602001908152602001600020600301549050919050565b6000809054906101000a900473ffffffffffffffffffffffffffffffffffffffff1673ffffffffffffffffffffffffffffffffffffffff163373ffffffffffffffffffffffffffffffffffffffff161415156113c257600080fd5b6000809054906101000a900473ffffffffffffffffffffffffffffffffffffffff1673ffffffffffffffffffffffffffffffffffffffff167ff8df31144d9c2f0f6b59d69b8b98abd5459d07f2742c4df920b25aae33c6482060405160405180910390a260008060006101000a81548173ffffffffffffffffffffffffffffffffffffffff021916908373ffffffffffffffffffffffffffffffffffffffff160217905550565b60086020528160005260406000208181548110151561148457fe5b90600052602060002001600091509150508054600181600116156101000203166002900480601f0160208091040260200160405190810160405280929190818152602001828054600181600116156101000203166002900480156115295780601f106114fe57610100808354040283529160200191611529565b820191906000526020600020905b81548152906001019060200180831161150c57829003601f168201915b505050505081565b6000809054906101000a900473ffffffffffffffffffffffffffffffffffffffff1681565b6000600254905090565b60606008600084600019166000191681526020019081526020016000208281548110151561158a57fe5b906000526020600020018054600181600116156101000203166002900480601f0160208091040260200160405190810160405280929190818152602001828054600181600116156101000203166002900480156116285780601f106115fd57610100808354040283529160200191611628565b820191906000526020600020905b81548152906001019060200180831161160b57829003601f168201915b5050505050905092915050565b600061163f611fea565b600061164a86611018565b73ffffffffffffffffffffffffffffffffffffffff1614151561166c57600080fd5b60a060405190810160405280600660003373ffffffffffffffffffffffffffffffffffffffff1673ffffffffffffffffffffffffffffffffffffffff1681526020019081526020016000208054905081526020018681526020018581526020018481526020013373ffffffffffffffffffffffffffffffffffffffff168152509050600660003373ffffffffffffffffffffffffffffffffffffffff1673ffffffffffffffffffffffffffffffffffffffff168152602001908152602001600020819080600181540180825580915050906001820390600052602060002090600502016000909192909190915060008201518160000155602082015181600101908051906020019061177f929190612030565b50604082015181600201908051906020019061179c929190612030565b506060820151816003015560808201518160040160006101000a81548173ffffffffffffffffffffffffffffffffffffffff021916908373ffffffffffffffffffffffffffffffffffffffff16021790555050505060016002600082825401925050819055508060036000600254815260200190815260200160002060008201518160000155602082015181600101908051906020019061183e929190612030565b50604082015181600201908051906020019061185b929190612030565b506060820151816003015560808201518160040160006101000a81548173ffffffffffffffffffffffffffffffffffffffff021916908373ffffffffffffffffffffffffffffffffffffffff16021790555090505060025460046000876040516020018080602001828103825283818151815260200191508051906020019080838360005b838110156118fb5780820151818401526020810190506118e0565b50505050905090810190601f1680156119285780820380516001836020036101000a031916815260200191505b50925050506040516020818303038152906040526040518082805190602001908083835b602083101515611971578051825260208201915060208101905060208303925061194c565b6001836020036101000a038019825116818451168082178552505050505050905001915050604051809103902060001916600019168152602001908152602001600020819055503360076000876040516020018080602001828103825283818151815260200191508051906020019080838360005b83811015611a015780820151818401526020810190506119e6565b50505050905090810190601f168015611a2e5780820380516001836020036101000a031916815260200191505b50925050506040516020818303038152906040526040518082805190602001908083835b602083101515611a775780518252602082019150602081019050602083039250611a52565b6001836020036101000a03801982511681845116808217855250505050505090500191505060405180910390206000191660001916815260200190815260200160002060006101000a81548173ffffffffffffffffffffffffffffffffffffffff021916908373ffffffffffffffffffffffffffffffffffffffff160217905550600660003373ffffffffffffffffffffffffffffffffffffffff1673ffffffffffffffffffffffffffffffffffffffff168152602001908152602001600020805490509150509392505050565b6003602052806000526040600020600091509050806000015490806001018054600181600116156101000203166002900480601f016020809104026020016040519081016040528092919081815260200182805460018160011615610100020316600290048015611bf75780601f10611bcc57610100808354040283529160200191611bf7565b820191906000526020600020905b815481529060010190602001808311611bda57829003601f168201915b505050505090806002018054600181600116156101000203166002900480601f016020809104026020016040519081016040528092919081815260200182805460018160011615610100020316600290048015611c955780601f10611c6a57610100808354040283529160200191611c95565b820191906000526020600020905b815481529060010190602001808311611c7857829003601f168201915b5050505050908060030154908060040160009054906101000a900473ffffffffffffffffffffffffffffffffffffffff16905085565b60076020528060005260406000206000915054906101000a900473ffffffffffffffffffffffffffffffffffffffff1681565b600060046000836040516020018080602001828103825283818151815260200191508051906020019080838360005b83811015611d48578082015181840152602081019050611d2d565b50505050905090810190601f168015611d755780820380516001836020036101000a031916815260200191505b50925050506040516020818303038152906040526040518082805190602001908083835b602083101515611dbe5780518252602082019150602081019050602083039250611d99565b6001836020036101000a038019825116818451168082178552505050505050905001915050604051809103902060001916600019168152602001908152602001600020549050919050565b6000809054906101000a900473ffffffffffffffffffffffffffffffffffffffff1673ffffffffffffffffffffffffffffffffffffffff163373ffffffffffffffffffffffffffffffffffffffff16141515611e6457600080fd5b611e6d81611e70565b50565b600073ffffffffffffffffffffffffffffffffffffffff168173ffffffffffffffffffffffffffffffffffffffff1614151515611eac57600080fd5b8073ffffffffffffffffffffffffffffffffffffffff166000809054906101000a900473ffffffffffffffffffffffffffffffffffffffff1673ffffffffffffffffffffffffffffffffffffffff167f8be0079c531659141344cd1fd0a4f28419497f9722a3daafe3b4186f6b6457e060405160405180910390a3806000806101000a81548173ffffffffffffffffffffffffffffffffffffffff021916908373ffffffffffffffffffffffffffffffffffffffff16021790555050565b828054600181600116156101000203166002900490600052602060002090601f016020900481019282601f10611fab57805160ff1916838001178555611fd9565b82800160010185558215611fd9579182015b82811115611fd8578251825591602001919060010190611fbd565b5b509050611fe691906120b0565b5090565b60a06040519081016040528060008152602001606081526020016060815260200160008152602001600073ffffffffffffffffffffffffffffffffffffffff1681525090565b828054600181600116156101000203166002900490600052602060002090601f016020900481019282601f1061207157805160ff191683800117855561209f565b8280016001018555821561209f579182015b8281111561209e578251825591602001919060010190612083565b5b5090506120ac91906120b0565b5090565b6120d291905b808211156120ce5760008160009055506001016120b6565b5090565b905600a165627a7a72305820bcf5f851b83f73bee60ba51c54df0e7855d027d820b174823c54007fd97404810029",
  "source": "pragma solidity ^0.4.24;\n//pragma experimental ABIEncoderV2;\n\nimport 'openzeppelin-solidity/contracts/ownership/Ownable.sol';\n//import \"github.com/OpenZeppelin/zeppelin-solidity/contracts/ownership/Ownable.sol\";\n\n\ncontract SimpleStorage is Ownable{\n  // define ipfsHash\n  string ipfsHash;\n\n  // Add a variable called Proofcount to count how much Proof globally\n  uint ProofCount;\n\n  // A mapping for storing all the proofs\n  mapping (uint => Proof) public Proofs;\n  // A mapping for matching hashes and index\n  mapping (bytes32 => uint) public Hashes;\n  \n  //array of uint for keeping track of proof created\n  uint256[] ProofTable; \n\n  // Add a mapping that does the correspondance between users and proofs they did\n  mapping (address => Proof[]) public ProofList;\n\n  // Add a mapping that does the correspondance between proofs and the users\n  mapping (bytes32 => address) public UserList;\n\n  //create a  correspondance between tag and ipfshhash\n  mapping (bytes32 => string[]) public TagTable;\n\n event ProofAssociated(address ownerHash, string ipfsHash);\n event ProofHash(string p);\n  event debug(bool destroyed);\n  event debug2(address destroyed);\n\n/* Implementation of design pattern / Circuit Breaker\nModifier for owner actions*/\nmodifier ownerRestricted {\n      require(owner == msg.sender);\n      _;\n   } \n\n// Function for killing the contract\n   function destroyContract() public{\n     require(owner == msg.sender);\n     selfdestruct(owner);\n   }\n\n/** @dev Proof is the struct keeping info of each doc\n      * @countdocs the id of the doc\n      * @ipfsHash the hash of the doc from IPFS\n      * @name the name of the file\n      * @time the timestamp of the doc\n      * @owner the adress of the owner of the doc\n      */\nstruct Proof {\n        uint256 countdocs; \n        string ipfsHash;\n        string name;\n        uint256 time;\n        address owner;\n    }\n\n//Function for creating a proof in the blockchain\n  function createProof(string _ipfsHash, string _name, uint256 _time) public returns (uint) {\n      //You can only create a proof if the ipfsHash is unique\n      require(getUser(_ipfsHash)==0);\n      Proof memory prooftemp = Proof({\n            countdocs: ProofList[msg.sender].length,\n            ipfsHash : _ipfsHash,\n            name : _name,\n            time: _time,\n            owner:msg.sender\n        });\n      //We add the proof to the proof list of a user\n      ProofList[msg.sender].push(prooftemp);\n      // We increment the total number of proofs uploaded\n      ProofCount+=1;\n      //We add the proof in the general list of proofs\n      Proofs[ProofCount]=prooftemp;\n      //We add the bytes of the hash with the corresponding index in a mapping\n      Hashes[keccak256(abi.encode(_ipfsHash))]=ProofCount;\n      // We add the user in the mapping for keeping proofs owner\n      UserList[keccak256(abi.encode(_ipfsHash))] = msg.sender;\n      //We return the total number of proofs of user\n      return  ProofList[msg.sender].length;\n  }\n  \n//Function for getting all the informations about a proof\n  function getProof(uint256 index) public view returns (uint256, string , string, uint256 , address) {\n         return (ProofList[msg.sender][index].countdocs, ProofList[msg.sender][index].ipfsHash, ProofList[msg.sender][index].name, ProofList[msg.sender][index].time, ProofList[msg.sender][index].owner);\n         \n}\n\n//Function for getting the count of all the proofs of a user\n  function getProofsCount() public view returns (uint) {\n      return(ProofList[msg.sender].length);\n  }\n\n//Function for getting the count of all the proofs\n  function getTotalProofs() public view returns (uint) {\n      return(ProofCount);\n  }\n\n//Function for retrieving the ID of the owner of the proof\n  function getUser(string finduser) public view returns (address) {\n      return(UserList[keccak256(abi.encode(finduser))]);\n  }\n\n//Function for retrieving the ID of a  proof with the string\n  function getIndex(string ipfshash) public view returns (uint) {\n      return(Hashes[keccak256(abi.encode(ipfshash))]);\n  }\n\n//Function for retrieving the timestamp of a  proof with the ID\n  function getTimeStamp(uint id) public view returns (uint256) {\n      return(Proofs[id].time);\n  }  \n\n//Function associate tag with IPFShash\n  function associateTags(bytes32 tag, string ipfshash) public returns (bool) {\n    //We verify that only the owner of the proof can add a tag\n      require(getUser(ipfshash) == msg.sender);\n      TagTable[tag].push(ipfshash);\n        return true;\n  }\n\n  \n  //Function To retrieve the number of proofs tagged \n  function retrieveTags(bytes32 tag) public view returns (uint256) {\n     uint256 TagCount = TagTable[tag].length;\n        return (TagCount);\n  } \n\n   //Function retrieve picturesHash from tag\n  function retrieveHashFromTag(bytes32 tag, uint i) public view returns (string) {\n        return (TagTable[tag][i]);\n  }\n\n  /** @dev transfer contract to another owner */\n    function _transferOwnership(address _newOwner) internal {\n        require(_newOwner != address(0));\n        emit OwnershipTransferred(owner, _newOwner);\n        owner = _newOwner;\n    }\n\n}",
  "sourcePath": "/home/fred/consensys_academy/PoE/contracts/SimpleStorage.sol",
  "compiler": {
    "name": "solc",
    "version": "0.4.24+commit.e67f0147.Emscripten.clang"
  },
  "schemaVersion": "2.0.1",
  "updatedAt": "2018-08-25T23:28:10.045Z"
}