{
  "contractName": "SimpleStorage",
  "abi": [
    {
      "constant": true,
      "inputs": [
        {
          "name": "",
          "type": "address"
        },
        {
          "name": "",
          "type": "uint256"
        }
      ],
      "name": "ProofList",
      "outputs": [
        {
          "name": "countdocs",
          "type": "uint256"
        },
        {
          "name": "ipfsHash",
          "type": "string"
        },
        {
          "name": "name",
          "type": "string"
        },
        {
          "name": "time",
          "type": "uint256"
        },
        {
          "name": "owner",
          "type": "address"
        }
      ],
      "payable": false,
      "stateMutability": "view",
      "type": "function"
    },
    {
      "constant": false,
      "inputs": [],
      "name": "renounceOwnership",
      "outputs": [],
      "payable": false,
      "stateMutability": "nonpayable",
      "type": "function"
    },
    {
      "constant": true,
      "inputs": [
        {
          "name": "",
          "type": "bytes32"
        },
        {
          "name": "",
          "type": "uint256"
        }
      ],
      "name": "TagTable",
      "outputs": [
        {
          "name": "",
          "type": "bytes32"
        }
      ],
      "payable": false,
      "stateMutability": "view",
      "type": "function"
    },
    {
      "constant": true,
      "inputs": [],
      "name": "owner",
      "outputs": [
        {
          "name": "",
          "type": "address"
        }
      ],
      "payable": false,
      "stateMutability": "view",
      "type": "function"
    },
    {
      "constant": true,
      "inputs": [
        {
          "name": "",
          "type": "uint256"
        }
      ],
      "name": "Proofs",
      "outputs": [
        {
          "name": "countdocs",
          "type": "uint256"
        },
        {
          "name": "ipfsHash",
          "type": "string"
        },
        {
          "name": "name",
          "type": "string"
        },
        {
          "name": "time",
          "type": "uint256"
        },
        {
          "name": "owner",
          "type": "address"
        }
      ],
      "payable": false,
      "stateMutability": "view",
      "type": "function"
    },
    {
      "constant": true,
      "inputs": [
        {
          "name": "",
          "type": "bytes32"
        }
      ],
      "name": "UserList",
      "outputs": [
        {
          "name": "",
          "type": "address"
        }
      ],
      "payable": false,
      "stateMutability": "view",
      "type": "function"
    },
    {
      "constant": false,
      "inputs": [
        {
          "name": "_newOwner",
          "type": "address"
        }
      ],
      "name": "transferOwnership",
      "outputs": [],
      "payable": false,
      "stateMutability": "nonpayable",
      "type": "function"
    },
    {
      "anonymous": false,
      "inputs": [
        {
          "indexed": false,
          "name": "ownerHash",
          "type": "address"
        },
        {
          "indexed": false,
          "name": "ipfsHash",
          "type": "string"
        }
      ],
      "name": "ProofAssociated",
      "type": "event"
    },
    {
      "anonymous": false,
      "inputs": [
        {
          "indexed": false,
          "name": "p",
          "type": "string"
        }
      ],
      "name": "ProofHash",
      "type": "event"
    },
    {
      "anonymous": false,
      "inputs": [
        {
          "indexed": true,
          "name": "previousOwner",
          "type": "address"
        }
      ],
      "name": "OwnershipRenounced",
      "type": "event"
    },
    {
      "anonymous": false,
      "inputs": [
        {
          "indexed": true,
          "name": "previousOwner",
          "type": "address"
        },
        {
          "indexed": true,
          "name": "newOwner",
          "type": "address"
        }
      ],
      "name": "OwnershipTransferred",
      "type": "event"
    },
    {
      "constant": false,
      "inputs": [
        {
          "name": "x",
          "type": "string"
        }
      ],
      "name": "set",
      "outputs": [],
      "payable": false,
      "stateMutability": "nonpayable",
      "type": "function"
    },
    {
      "constant": false,
      "inputs": [],
      "name": "fill_map",
      "outputs": [
        {
          "name": "",
          "type": "uint256"
        }
      ],
      "payable": false,
      "stateMutability": "nonpayable",
      "type": "function"
    },
    {
      "constant": true,
      "inputs": [],
      "name": "get",
      "outputs": [
        {
          "name": "",
          "type": "string"
        }
      ],
      "payable": false,
      "stateMutability": "view",
      "type": "function"
    },
    {
      "constant": false,
      "inputs": [
        {
          "name": "_ipfsHash",
          "type": "string"
        },
        {
          "name": "_name",
          "type": "string"
        },
        {
          "name": "_time",
          "type": "uint256"
        }
      ],
      "name": "createProof",
      "outputs": [
        {
          "name": "",
          "type": "uint256"
        }
      ],
      "payable": false,
      "stateMutability": "nonpayable",
      "type": "function"
    },
    {
      "constant": false,
      "inputs": [],
      "name": "getProofs",
      "outputs": [
        {
          "name": "",
          "type": "address"
        }
      ],
      "payable": false,
      "stateMutability": "nonpayable",
      "type": "function"
    },
    {
      "constant": true,
      "inputs": [
        {
          "name": "index",
          "type": "uint256"
        }
      ],
      "name": "getProof",
      "outputs": [
        {
          "name": "",
          "type": "uint256"
        },
        {
          "name": "",
          "type": "string"
        },
        {
          "name": "",
          "type": "string"
        },
        {
          "name": "",
          "type": "uint256"
        },
        {
          "name": "",
          "type": "address"
        }
      ],
      "payable": false,
      "stateMutability": "view",
      "type": "function"
    },
    {
      "constant": true,
      "inputs": [],
      "name": "getProofsCount",
      "outputs": [
        {
          "name": "",
          "type": "uint256"
        }
      ],
      "payable": false,
      "stateMutability": "view",
      "type": "function"
    },
    {
      "constant": true,
      "inputs": [
        {
          "name": "finduser",
          "type": "string"
        }
      ],
      "name": "getUser",
      "outputs": [
        {
          "name": "",
          "type": "address"
        }
      ],
      "payable": false,
      "stateMutability": "view",
      "type": "function"
    },
    {
      "constant": false,
      "inputs": [
        {
          "name": "tag",
          "type": "string"
        },
        {
          "name": "ipfshash",
          "type": "string"
        }
      ],
      "name": "associateTags",
      "outputs": [
        {
          "name": "",
          "type": "bool"
        }
      ],
      "payable": false,
      "stateMutability": "nonpayable",
      "type": "function"
    },
    {
      "constant": true,
      "inputs": [
        {
          "name": "tag",
          "type": "string"
        }
      ],
      "name": "retrieveTags",
      "outputs": [
        {
          "name": "",
          "type": "uint256"
        }
      ],
      "payable": false,
      "stateMutability": "view",
      "type": "function"
    },
    {
      "constant": true,
      "inputs": [
        {
          "name": "tag",
          "type": "string"
        },
        {
          "name": "i",
          "type": "uint256"
        }
      ],
      "name": "retrieveHashFromTag",
      "outputs": [
        {
          "name": "",
          "type": "bytes32"
        }
      ],
      "payable": false,
      "stateMutability": "view",
      "type": "function"
    }
  ],
  "bytecode": "0x6080604052336000806101000a81548173ffffffffffffffffffffffffffffffffffffffff021916908373ffffffffffffffffffffffffffffffffffffffff160217905550612739806100536000396000f3006080604052600436106100fc576000357c0100000000000000000000000000000000000000000000000000000000900463ffffffff1680630cd5da161461010157806311149ada1461019057806323defa1d146102e35780632c7a9d761461036057806331feb671146104275780633b7c5148146104d05780634ed3885e14610643578063624a6b0d146106ac5780636d4ce63c146106d7578063715018a614610767578063899d65461461077e5780638da5cb5b146107d5578063952197321461082c578063a6ea19ad14610857578063af65c2d914610924578063b83500d014610a77578063c60760f914610ae8578063f2fde38b14610b3f575b600080fd5b34801561010d57600080fd5b50610172600480360381019080803590602001908201803590602001908080601f016020809104026020016040519081016040528093929190818152602001838380828437820191505050505050919291929080359060200190929190505050610b82565b60405180826000191660001916815260200191505060405180910390f35b34801561019c57600080fd5b506101bb60048036038101908080359060200190929190505050610cab565b6040518086815260200180602001806020018581526020018473ffffffffffffffffffffffffffffffffffffffff1673ffffffffffffffffffffffffffffffffffffffff168152602001838103835287818151815260200191508051906020019080838360005b8381101561023d578082015181840152602081019050610222565b50505050905090810190601f16801561026a5780820380516001836020036101000a031916815260200191505b50838103825286818151815260200191508051906020019080838360005b838110156102a3578082015181840152602081019050610288565b50505050905090810190601f1680156102d05780820380516001836020036101000a031916815260200191505b5097505050505050505060405180910390f35b3480156102ef57600080fd5b5061034a600480360381019080803590602001908201803590602001908080601f0160208091040260200160405190810160405280939291908181526020018383808284378201915050505050509192919290505050610e8f565b6040518082815260200191505060405180910390f35b34801561036c57600080fd5b5061040d600480360381019080803590602001908201803590602001908080601f0160208091040260200160405190810160405280939291908181526020018383808284378201915050505050509192919290803590602001908201803590602001908080601f0160208091040260200160405190810160405280939291908181526020018383808284378201915050505050509192919290505050610fa2565b604051808215151515815260200191505060405180910390f35b34801561043357600080fd5b5061048e600480360381019080803590602001908201803590602001908080601f01602080910402602001604051908101604052809392919081815260200183838082843782019150505050505091929192905050506111c5565b604051808273ffffffffffffffffffffffffffffffffffffffff1673ffffffffffffffffffffffffffffffffffffffff16815260200191505060405180910390f35b3480156104dc57600080fd5b5061051b600480360381019080803573ffffffffffffffffffffffffffffffffffffffff169060200190929190803590602001909291905050506112f0565b6040518086815260200180602001806020018581526020018473ffffffffffffffffffffffffffffffffffffffff1673ffffffffffffffffffffffffffffffffffffffff168152602001838103835287818151815260200191508051906020019080838360005b8381101561059d578082015181840152602081019050610582565b50505050905090810190601f1680156105ca5780820380516001836020036101000a031916815260200191505b50838103825286818151815260200191508051906020019080838360005b838110156106035780820151818401526020810190506105e8565b50505050905090810190601f1680156106305780820380516001836020036101000a031916815260200191505b5097505050505050505060405180910390f35b34801561064f57600080fd5b506106aa600480360381019080803590602001908201803590602001908080601f0160208091040260200160405190810160405280939291908181526020018383808284378201915050505050509192919290505050611492565b005b3480156106b857600080fd5b506106c16114ac565b6040518082815260200191505060405180910390f35b3480156106e357600080fd5b506106ec6114f6565b6040518080602001828103825283818151815260200191508051906020019080838360005b8381101561072c578082015181840152602081019050610711565b50505050905090810190601f1680156107595780820380516001836020036101000a031916815260200191505b509250505060405180910390f35b34801561077357600080fd5b5061077c611598565b005b34801561078a57600080fd5b506107b760048036038101908080356000191690602001909291908035906020019092919050505061169a565b60405180826000191660001916815260200191505060405180910390f35b3480156107e157600080fd5b506107ea6116ca565b604051808273ffffffffffffffffffffffffffffffffffffffff1673ffffffffffffffffffffffffffffffffffffffff16815260200191505060405180910390f35b34801561083857600080fd5b506108416116ef565b6040518082815260200191505060405180910390f35b34801561086357600080fd5b5061090e600480360381019080803590602001908201803590602001908080601f0160208091040260200160405190810160405280939291908181526020018383808284378201915050505050509192919290803590602001908201803590602001908080601f016020809104026020016040519081016040528093929190818152602001838380828437820191505050505050919291929080359060200190929190505050611c74565b6040518082815260200191505060405180910390f35b34801561093057600080fd5b5061094f60048036038101908080359060200190929190505050612087565b6040518086815260200180602001806020018581526020018473ffffffffffffffffffffffffffffffffffffffff1673ffffffffffffffffffffffffffffffffffffffff168152602001838103835287818151815260200191508051906020019080838360005b838110156109d15780820151818401526020810190506109b6565b50505050905090810190601f1680156109fe5780820380516001836020036101000a031916815260200191505b50838103825286818151815260200191508051906020019080838360005b83811015610a37578082015181840152602081019050610a1c565b50505050905090810190601f168015610a645780820380516001836020036101000a031916815260200191505b5097505050505050505060405180910390f35b348015610a8357600080fd5b50610aa6600480360381019080803560001916906020019092919050505061220d565b604051808273ffffffffffffffffffffffffffffffffffffffff1673ffffffffffffffffffffffffffffffffffffffff16815260200191505060405180910390f35b348015610af457600080fd5b50610afd612240565b604051808273ffffffffffffffffffffffffffffffffffffffff1673ffffffffffffffffffffffffffffffffffffffff16815260200191505060405180910390f35b348015610b4b57600080fd5b50610b80600480360381019080803573ffffffffffffffffffffffffffffffffffffffff16906020019092919050505061243f565b005b60008060086000856040516020018080602001828103825283818151815260200191508051906020019080838360005b83811015610bcd578082015181840152602081019050610bb2565b50505050905090810190601f168015610bfa5780820380516001836020036101000a031916815260200191505b50925050506040516020818303038152906040526040518082805190602001908083835b602083101515610c435780518252602082019150602081019050602083039250610c1e565b6001836020036101000a0380198251168184511680821785525050505050509050019150506040518091039020600019166000191681526020019081526020016000206001815481101515610c9457fe5b906000526020600020015490508091505092915050565b600060608060008060046000878152602001908152602001600020600001546004600088815260200190815260200160002060010160046000898152602001908152602001600020600201600460008a815260200190815260200160002060030154600460008b815260200190815260200160002060040160009054906101000a900473ffffffffffffffffffffffffffffffffffffffff16838054600181600116156101000203166002900480601f016020809104026020016040519081016040528092919081815260200182805460018160011615610100020316600290048015610dd95780601f10610dae57610100808354040283529160200191610dd9565b820191906000526020600020905b815481529060010190602001808311610dbc57829003601f168201915b50505050509350828054600181600116156101000203166002900480601f016020809104026020016040519081016040528092919081815260200182805460018160011615610100020316600290048015610e755780601f10610e4a57610100808354040283529160200191610e75565b820191906000526020600020905b815481529060010190602001808311610e5857829003601f168201915b505050505092509450945094509450945091939590929450565b60008060086000846040516020018080602001828103825283818151815260200191508051906020019080838360005b83811015610eda578082015181840152602081019050610ebf565b50505050905090810190601f168015610f075780820380516001836020036101000a031916815260200191505b50925050506040516020818303038152906040526040518082805190602001908083835b602083101515610f505780518252602082019150602081019050602083039250610f2b565b6001836020036101000a03801982511681845116808217855250505050505090500191505060405180910390206000191660001916815260200190815260200160002080549050905080915050919050565b600060086000846040516020018080602001828103825283818151815260200191508051906020019080838360005b83811015610fec578082015181840152602081019050610fd1565b50505050905090810190601f1680156110195780820380516001836020036101000a031916815260200191505b50925050506040516020818303038152906040526040518082805190602001908083835b602083101515611062578051825260208201915060208101905060208303925061103d565b6001836020036101000a038019825116818451168082178552505050505050905001915050604051809103902060001916600019168152602001908152602001600020826040516020018080602001828103825283818151815260200191508051906020019080838360005b838110156110e95780820151818401526020810190506110ce565b50505050905090810190601f1680156111165780820380516001836020036101000a031916815260200191505b50925050506040516020818303038152906040526040518082805190602001908083835b60208310151561115f578051825260208201915060208101905060208303925061113a565b6001836020036101000a038019825116818451168082178552505050505050905001915050604051809103902090806001815401808255809150509060018203906000526020600020016000909192909190915090600019169055506001905092915050565b600060076000836040516020018080602001828103825283818151815260200191508051906020019080838360005b8381101561120f5780820151818401526020810190506111f4565b50505050905090810190601f16801561123c5780820380516001836020036101000a031916815260200191505b50925050506040516020818303038152906040526040518082805190602001908083835b6020831015156112855780518252602082019150602081019050602083039250611260565b6001836020036101000a03801982511681845116808217855250505050505090500191505060405180910390206000191660001916815260200190815260200160002060009054906101000a900473ffffffffffffffffffffffffffffffffffffffff169050919050565b60066020528160005260406000208181548110151561130b57fe5b906000526020600020906005020160009150915050806000015490806001018054600181600116156101000203166002900480601f0160208091040260200160405190810160405280929190818152602001828054600181600116156101000203166002900480156113be5780601f10611393576101008083540402835291602001916113be565b820191906000526020600020905b8154815290600101906020018083116113a157829003601f168201915b505050505090806002018054600181600116156101000203166002900480601f01602080910402602001604051908101604052809291908181526020018280546001816001161561010002031660029004801561145c5780601f106114315761010080835404028352916020019161145c565b820191906000526020600020905b81548152906001019060200180831161143f57829003601f168201915b5050505050908060030154908060040160009054906101000a900473ffffffffffffffffffffffffffffffffffffffff16905085565b80600190805190602001906114a89291906125a2565b5050565b6000600660003373ffffffffffffffffffffffffffffffffffffffff1673ffffffffffffffffffffffffffffffffffffffff16815260200190815260200160002080549050905090565b606060018054600181600116156101000203166002900480601f01602080910402602001604051908101604052809291908181526020018280546001816001161561010002031660029004801561158e5780601f106115635761010080835404028352916020019161158e565b820191906000526020600020905b81548152906001019060200180831161157157829003601f168201915b5050505050905090565b6000809054906101000a900473ffffffffffffffffffffffffffffffffffffffff1673ffffffffffffffffffffffffffffffffffffffff163373ffffffffffffffffffffffffffffffffffffffff161415156115f357600080fd5b6000809054906101000a900473ffffffffffffffffffffffffffffffffffffffff1673ffffffffffffffffffffffffffffffffffffffff167ff8df31144d9c2f0f6b59d69b8b98abd5459d07f2742c4df920b25aae33c6482060405160405180910390a260008060006101000a81548173ffffffffffffffffffffffffffffffffffffffff021916908373ffffffffffffffffffffffffffffffffffffffff160217905550565b6008602052816000526040600020818154811015156116b557fe5b90600052602060002001600091509150505481565b6000809054906101000a900473ffffffffffffffffffffffffffffffffffffffff1681565b60006116f9612622565b611701612622565b60a06040519081016040528060058054905081526020016040805190810160405280600481526020017f746573740000000000000000000000000000000000000000000000000000000081525081526020016040805190810160405280600881526020017f746573746e616d650000000000000000000000000000000000000000000000008152508152602001607b81526020013373ffffffffffffffffffffffffffffffffffffffff16815250915060058080549050908060018154018082558091505090600182039060005260206000200160009091929091909150555081600460006005805490508152602001908152602001600020600082015181600001556020820151816001019080519060200190611820929190612668565b50604082015181600201908051906020019061183d929190612668565b506060820151816003015560808201518160040160006101000a81548173ffffffffffffffffffffffffffffffffffffffff021916908373ffffffffffffffffffffffffffffffffffffffff16021790555090505060a06040519081016040528060058054905081526020016040805190810160405280600181526020017f310000000000000000000000000000000000000000000000000000000000000081525081526020016040805190810160405280600181526020017f3200000000000000000000000000000000000000000000000000000000000000815250815260200161014181526020013373ffffffffffffffffffffffffffffffffffffffff168152509050600580805490509080600181540180825580915050906001820390600052602060002001600090919290919091505550806004600060058054905081526020019081526020016000206000820151816000015560208201518160010190805190602001906119b2929190612668565b5060408201518160020190805190602001906119cf929190612668565b506060820151816003015560808201518160040160006101000a81548173ffffffffffffffffffffffffffffffffffffffff021916908373ffffffffffffffffffffffffffffffffffffffff160217905550905050600660003373ffffffffffffffffffffffffffffffffffffffff1673ffffffffffffffffffffffffffffffffffffffff1681526020019081526020016000208290806001815401808255809150509060018203906000526020600020906005020160009091929091909150600082015181600001556020820151816001019080519060200190611ab5929190612668565b506040820151816002019080519060200190611ad2929190612668565b506060820151816003015560808201518160040160006101000a81548173ffffffffffffffffffffffffffffffffffffffff021916908373ffffffffffffffffffffffffffffffffffffffff160217905550505050600660003373ffffffffffffffffffffffffffffffffffffffff1673ffffffffffffffffffffffffffffffffffffffff1681526020019081526020016000208190806001815401808255809150509060018203906000526020600020906005020160009091929091909150600082015181600001556020820151816001019080519060200190611bb8929190612668565b506040820151816002019080519060200190611bd5929190612668565b506060820151816003015560808201518160040160006101000a81548173ffffffffffffffffffffffffffffffffffffffff021916908373ffffffffffffffffffffffffffffffffffffffff160217905550505050600660003373ffffffffffffffffffffffffffffffffffffffff1673ffffffffffffffffffffffffffffffffffffffff168152602001908152602001600020805490509250505090565b6000611c7e612622565b60a060405190810160405280600660003373ffffffffffffffffffffffffffffffffffffffff1673ffffffffffffffffffffffffffffffffffffffff1681526020019081526020016000208054905081526020018681526020018581526020018481526020013373ffffffffffffffffffffffffffffffffffffffff168152509050600660003373ffffffffffffffffffffffffffffffffffffffff1673ffffffffffffffffffffffffffffffffffffffff1681526020019081526020016000208190806001815401808255809150509060018203906000526020600020906005020160009091929091909150600082015181600001556020820151816001019080519060200190611d91929190612668565b506040820151816002019080519060200190611dae929190612668565b506060820151816003015560808201518160040160006101000a81548173ffffffffffffffffffffffffffffffffffffffff021916908373ffffffffffffffffffffffffffffffffffffffff1602179055505050508060046000600660003373ffffffffffffffffffffffffffffffffffffffff1673ffffffffffffffffffffffffffffffffffffffff168152602001908152602001600020805490508152602001908152602001600020600082015181600001556020820151816001019080519060200190611e7f929190612668565b506040820151816002019080519060200190611e9c929190612668565b506060820151816003015560808201518160040160006101000a81548173ffffffffffffffffffffffffffffffffffffffff021916908373ffffffffffffffffffffffffffffffffffffffff160217905550905050600660003373ffffffffffffffffffffffffffffffffffffffff1673ffffffffffffffffffffffffffffffffffffffff168152602001908152602001600020805490506003819055503360076000876040516020018080602001828103825283818151815260200191508051906020019080838360005b83811015611f83578082015181840152602081019050611f68565b50505050905090810190601f168015611fb05780820380516001836020036101000a031916815260200191505b50925050506040516020818303038152906040526040518082805190602001908083835b602083101515611ff95780518252602082019150602081019050602083039250611fd4565b6001836020036101000a03801982511681845116808217855250505050505090500191505060405180910390206000191660001916815260200190815260200160002060006101000a81548173ffffffffffffffffffffffffffffffffffffffff021916908373ffffffffffffffffffffffffffffffffffffffff1602179055506003549150509392505050565b6004602052806000526040600020600091509050806000015490806001018054600181600116156101000203166002900480601f0160208091040260200160405190810160405280929190818152602001828054600181600116156101000203166002900480156121395780601f1061210e57610100808354040283529160200191612139565b820191906000526020600020905b81548152906001019060200180831161211c57829003601f168201915b505050505090806002018054600181600116156101000203166002900480601f0160208091040260200160405190810160405280929190818152602001828054600181600116156101000203166002900480156121d75780601f106121ac576101008083540402835291602001916121d7565b820191906000526020600020905b8154815290600101906020018083116121ba57829003601f168201915b5050505050908060030154908060040160009054906101000a900473ffffffffffffffffffffffffffffffffffffffff16905085565b60076020528060005260406000206000915054906101000a900473ffffffffffffffffffffffffffffffffffffffff1681565b600080600090505b600660003373ffffffffffffffffffffffffffffffffffffffff1673ffffffffffffffffffffffffffffffffffffffff168152602001908152602001600020805490508110156123b4577ff817d27bd39e180833d888e416c9acf3d60c0dfdd73e61a6f5c17dce11a05d7e600660003373ffffffffffffffffffffffffffffffffffffffff1673ffffffffffffffffffffffffffffffffffffffff168152602001908152602001600020828154811015156122ff57fe5b906000526020600020906005020160010160405180806020018281038252838181546001816001161561010002031660029004815260200191508054600181600116156101000203166002900480156123995780601f1061236e57610100808354040283529160200191612399565b820191906000526020600020905b81548152906001019060200180831161237c57829003601f168201915b50509250505060405180910390a18080600101915050612248565b600181039050600660003373ffffffffffffffffffffffffffffffffffffffff1673ffffffffffffffffffffffffffffffffffffffff168152602001908152602001600020600181548110151561240757fe5b906000526020600020906005020160040160009054906101000a900473ffffffffffffffffffffffffffffffffffffffff1691505090565b6000809054906101000a900473ffffffffffffffffffffffffffffffffffffffff1673ffffffffffffffffffffffffffffffffffffffff163373ffffffffffffffffffffffffffffffffffffffff1614151561249a57600080fd5b6124a3816124a6565b50565b600073ffffffffffffffffffffffffffffffffffffffff168173ffffffffffffffffffffffffffffffffffffffff16141515156124e257600080fd5b8073ffffffffffffffffffffffffffffffffffffffff16600260009054906101000a900473ffffffffffffffffffffffffffffffffffffffff1673ffffffffffffffffffffffffffffffffffffffff167f8be0079c531659141344cd1fd0a4f28419497f9722a3daafe3b4186f6b6457e060405160405180910390a380600260006101000a81548173ffffffffffffffffffffffffffffffffffffffff021916908373ffffffffffffffffffffffffffffffffffffffff16021790555050565b828054600181600116156101000203166002900490600052602060002090601f016020900481019282601f106125e357805160ff1916838001178555612611565b82800160010185558215612611579182015b828111156126105782518255916020019190600101906125f5565b5b50905061261e91906126e8565b5090565b60a06040519081016040528060008152602001606081526020016060815260200160008152602001600073ffffffffffffffffffffffffffffffffffffffff1681525090565b828054600181600116156101000203166002900490600052602060002090601f016020900481019282601f106126a957805160ff19168380011785556126d7565b828001600101855582156126d7579182015b828111156126d65782518255916020019190600101906126bb565b5b5090506126e491906126e8565b5090565b61270a91905b808211156127065760008160009055506001016126ee565b5090565b905600a165627a7a72305820832ea76861edf6694817beedee59f8491fd6a54d6858d7bf3e7bc8bb3b94576b0029",
  "source": "pragma solidity ^0.4.24;\n//pragma experimental ABIEncoderV2;\n\nimport 'openzeppelin-solidity/contracts/ownership/Ownable.sol';\n//import \"github.com/OpenZeppelin/zeppelin-solidity/contracts/ownership/Ownable.sol\";\n\n\ncontract SimpleStorage is Ownable{\n  // define ipfsHash\n  string ipfsHash;\n\n   // set owner \n  address owner;\n\n  // Add a variable called Proofcount to count how much Proof per user \n  uint ProofCount;\n\n  // A mapping for storing all the proofs\n  mapping (uint => Proof) public Proofs;\n\n  //array of uint for keeping track of proof created\n  uint256[] ProofTable; \n\n  // Add a mapping that does the correspondance between users and proofs they did\n  mapping (address => Proof[]) public ProofList;\n  mapping (bytes32 => address) public UserList;\n  //create a  correspondance between tag and ipfshhash\n  mapping (bytes32 => bytes32[]) public TagTable;\n\n event ProofAssociated(address ownerHash, string ipfsHash);\n event ProofHash(string p);\n\n\n/* Implementation of design pattern / Circuit Breaker\nModifier for owner actions*/\nmodifier ownerRestricted {\n      require(owner == msg.sender);\n      _;\n   } \n\n// Function for killing the contract\n   function destroyContract() private ownerRestricted {\n     selfdestruct(owner);\n   }\n\n/** @dev Proof is the struct keeping info of each doc\n      * @countdocs the id of the doc\n      * @ipfsHash the hash of the doc from IPFS\n      * @name the name of the file\n      * @time the timestamp of the doc\n      * @owner the adress of the owner of the doc\n      */\nstruct Proof {\n        uint256 countdocs; \n        string ipfsHash;\n        string name;\n        uint256 time;\n        address owner;\n    }\n\n//A struct use for the users    \nstruct User{\n    address owner;\n}\n\n//A standard function for setting an ipfsHash\n  function set(string x) public {\n    ipfsHash = x;\n  }\n\n//A function for associating standard documents to a user\nfunction fill_map() public returns (uint){\n    //Definintion of first test document\n    Proof memory proof1 = Proof({\n            countdocs: ProofTable.length,\n            ipfsHash : \"test\",\n            name : \"testname\",\n            time: 123,\n            owner:msg.sender\n        });\n    ProofTable.push(ProofTable.length);\n    Proofs[ProofTable.length]=proof1;\n\n    //Definintion of second test document    \n    Proof memory proof2 = Proof({\n            countdocs: ProofTable.length,\n            ipfsHash : \"1\",\n            name : \"2\",\n            time: 321,\n            owner:msg.sender\n        });\n\n    ProofTable.push(ProofTable.length);\n    Proofs[ProofTable.length]=proof2;\n    \n   //test for adding a proof for a user\n    ProofList[msg.sender].push(proof1);\n    ProofList[msg.sender].push(proof2);\n\n    //Sends back the lenght of the ProofList mapping for the user\n    return ProofList[msg.sender].length;\n\n  }\n\n//Function to retrieve the owner of a doc from the IPFSHash  \n  function get() public view returns (string) {\n    return ipfsHash;\n  }\n\n//Function for creating a proof in the blockchain\n  function createProof(string _ipfsHash, string _name, uint256 _time) returns (uint) {\n      Proof memory prooftemp = Proof({\n            countdocs: ProofList[msg.sender].length,\n            ipfsHash : _ipfsHash,\n            name : _name,\n            time: _time,\n            owner:msg.sender\n        });\n      ProofList[msg.sender].push(prooftemp);\n      Proofs[ProofList[msg.sender].length]=prooftemp;\n      ProofCount = ProofList[msg.sender].length;\n      UserList[keccak256(abi.encode(_ipfsHash))] = msg.sender;\n      return  ProofCount;\n  }\n  \n//Function for getting all the proofs from a user\nfunction getProofs() public returns (address) {\n    for (uint i = 0; i < ProofList[msg.sender].length; i++) {\n            emit ProofHash(ProofList[msg.sender][i].ipfsHash);\n        }\n        i=i-1;\n        return(ProofList[msg.sender][1].owner);\n  }\n\n//Function for getting all the informations about a proof\n  function getProof(uint256 index) public view returns (uint256, string , string, uint256 , address ) {\n         return (Proofs[index].countdocs, Proofs[index].ipfsHash, Proofs[index].name, Proofs[index].time, Proofs[index].owner);\n}\n\n//Function for getting the count of all the proofs of a user\n  function getProofsCount() public view returns (uint) {\n      return(ProofList[msg.sender].length);\n  }\n\n//Function for retrieving the ID of the owner of the proof\n  function getUser(string finduser) public view returns (address) {\n      return(UserList[keccak256(abi.encode(finduser))]);\n  }\n\n//Function associate tag with IPFShash\n  function associateTags(string tag, string ipfshash) public returns (bool) {\n      TagTable[keccak256(abi.encode(tag))].push(keccak256(abi.encode(ipfshash)));\n        return true;\n  }\n\n  //Function associate tag with IPFShash\n  function retrieveTags(string tag) public view returns (uint256) {\n      //TagTable[keccak256(abi.encode(tag))].push(keccak256(abi.encode(ipfshash))\n     uint256 TagCount = TagTable[keccak256(abi.encode(tag))].length;\n    // bytes32 testname = TagTable[keccak256(abi.encode(tag))][1];\n        return (TagCount);\n  } \n\n   //Function retrieve picturesHash from tag\n  function retrieveHashFromTag(string tag, uint i) public view returns (bytes32) {\n      //TagTable[keccak256(abi.encode(tag))].push(keccak256(abi.encode(ipfshash))\n     //uint256 TagCount = TagTable[keccak256(abi.encode(tag))].length;\n     bytes32 hashValue = TagTable[keccak256(abi.encode(tag))][1];\n        return (hashValue);\n  }\n\n  /** @dev transfer contract to another owner */\n    function _transferOwnership(address _newOwner) internal {\n        require(_newOwner != address(0));\n        emit OwnershipTransferred(owner, _newOwner);\n        owner = _newOwner;\n    }\n\n}",
  "sourcePath": "/home/fred/consensys_academy/PoE/contracts/SimpleStorage.sol",
  "compiler": {
    "name": "solc",
    "version": "0.4.24+commit.e67f0147.Emscripten.clang"
  },
  "schemaVersion": "2.0.1",
  "updatedAt": "2018-08-18T16:26:44.192Z"
}